:0200000480007A
:10000000130510007310050213051000731015027C
:10001000731040F17310103037F1FF7FEF00001BB9
:10002000EF10C06B73000000938B0600130D0700E8
:10003000130F01009303050013051000635C7500A6
:1000400013010180130305006B5003001305150015
:100050006FF0DFFE1300000013000000130000002B
:1000600013000000130000001300000013010F0034
:1000700013050000930F0600938D0300EBE0BF0112
:10008000170500001305051B6B4005001703000052
:100090001303C3F96B00030067800000170200011F
:1000A0001302421E232002002322120023242200D6
:1000B0002326320023284200232A5200232C6200E8
:1000C000232E720023208202232292022324A202E2
:1000D0002326B2022328C202232AD202232CE202C0
:1000E000232EF202232002052322120523242205B7
:1000F0002326320523284205232A5205232C620594
:10010000232E720523208207232292072324A2078D
:100110002326B2072328C207232AD207232CE2076B
:10012000232EF2071302100067800000170200015F
:1001300013024215032002008320420003218200A3
:100140008321C20003220201832242010323820190
:100150008323C20103240202832442020325820274
:100160008325C20203260203832642030327820358
:100170008327C2030328020483284204032982043C
:100180008329C204032A0205832A4205032B820520
:10019000832BC205032C0206832C4206032D820604
:1001A000832DC206032E0207832E4207032F8207E8
:1001B000832FC2071302000067800000732500022E
:1001C000678000007325100267800000130101FEA4
:1001D000232E1100232C810013040102232604FE88
:1001E0006F0000030327C4FE9307404C3307F70258
:1001F000B707008193870730B307F700138507001F
:10020000EF0040408327C4FE938717002326F4FEA7
:100210000327C4FE93077000E3D6E7FC1300000039
:100220008320C101032481011301010267800000C2
:10023000130101FD23261102232481022322A1039D
:100240001304010313070D009307404C3307F70213
:10025000B707008193870730B307F70013850700BE
:10026000EF00804B93070500638A070293060D0099
:10027000B70700811387072693972600B307F70077
:100280001307100023A0E70093070D0063960700F3
:10029000EFF0DFE96F0080057300000013070D0029
:1002A0009307404C3307F702B70700819387073065
:1002B000B307F700130784FD9305070013850700B4
:1002C000EF00003D832704FE138107008327C4FD50
:1002D000832584FD032644FE832684FE0327C4FE73
:1002E00013850700EFF05FD4730000008320C10284
:1002F00003248102032D41021301010367800000E2
:10030000130101FB23261104232481041304010596
:10031000EFF0DFEA2324A4FE930901009307100005
:100320002326F4FE6F0040080327C4FE9307404CC9
:100330003307F702B707008193870730B307F70049
:1003400013850700EF00403D9307050063980704FD
:100350000327C4FE9307404C3307F702B707008119
:1003600093870730B307F700130704FD93050700D1
:1003700013850700EF00C031832784FD1381070038
:10038000832744FD832504FD0326C4FD832604FE44
:10039000032744FE13850700EFF05FCF8327C4FED9
:1003A000938717002326F4FE8327C4FE032784FEC9
:1003B000E3ECE7F613810900EFF05FCE930702004C
:1003C00063880704B707008113850730EF00C03446
:1003D00093070500639E0702930784FB938507003C
:1003E000B707008113850730EF00802A832704FCBC
:1003F000138107008327C4FB832584FB032644FC69
:10040000832684FC0327C4FC13850700EFF0DFC1BB
:10041000130000008320C10403248104130101059B
:1004200067800000130101FB2326110423248104AB
:1004300013040105232EA4FA232CB4FA232AC4FAA8
:100440002328D4FAEFF09FD8EFF05FD72322A4FE41
:1004500013090100232604FE232404FE6F00C008B4
:10046000B709FFFF33013101832784FE2326F4FC03
:10047000832784FB2328F4FC93070100232AF4FC40
:10048000832744FB232CF4FC832704FB232EF4FC5A
:100490008327C4FE2320F4FE0327C4FE9307404CA9
:1004A0003307F702B707008193870730B307F700D8
:1004B0001307C4FC9305070013850700EF00C0165F
:1004C0008327C4FE938717002326F4FE8327C4FEE8
:1004D000032744FE63E4E700232604FE832784FE0B
:1004E000938717002324F4FE032784FE8327C4FB8D
:1004F000E368F7F613010900EFF09FE01300000036
:100500008320C104032481041301010567800000D6
:10051000130101FD23261102232481021304010388
:10052000232EA4FCEFF09FC92320A4FE232604FE63
:100530006F004005232604FE232404FE6F00C00341
:10054000B707008113870726832784FE9397270028
:10055000B307F70003A70700930710006318F7001D
:100560008327C4FE938717002326F4FE832784FE87
:10057000938717002324F4FE832784FE032704FEB9
:10058000E3E0E7FC0327C4FE8327C4FDE314F7FA86
:10059000232204FE6F008002B7070081138707261D
:1005A000832744FE93972700B307F70023A0070093
:1005B000832744FE938717002322F4FE832744FEFB
:1005C000032704FEE3EAE7FC130000008320C102D6
:1005D000032481021301010367800000130101FF5E
:1005E00023268100232471011304010193870B004A
:1005F000138507000324C100832B8100130101012F
:10060000678000009302050013030000930370004D
:1006100023A0620023A2620023A4620023A672002A
:1006200023A86200678000009302050003A38200F4
:100630001303130023A462001383420183AE42001C
:1006400093935E003303730003AE05002320C301C0
:1006500003AE45002322C30103AE85002324C3015A
:1006600003AEC5002326C30103AE05012328C30141
:1006700003AE4501232AC301938E1E00130F2003EE
:100680006394EE01930E000023A2D2016780000064
:100690009302050003A382001303F3FF23A4620067
:1006A0001383420183AE0200930F2003138F0E00C9
:1006B000130F1F006314FF01130F000023A0E201BA
:1006C00093935E0033037300032E030023A0C50140
:1006D000032E430023A2C501032E830023A4C501DA
:1006E000032EC30023A6C501032E030123A8C501C1
:1006F000032E430123AAC501678000009302050071
:1007000003A3820013050000130E200363146E0080
:1007100013051500678000009302050003A3820003
:1007200013050000130E000063146E00130515007E
:10073000678000009302050003A3C20083A30201A7
:1007400033B5630067800000130141FF23201100CF
:100750002322B1008345050063880500EF00C00136
:10076000130515006FF01FFF832001008325410052
:100770001301C10067800000B708010023A0B80082
:1007800067800000130101FD23261102232481024A
:1007900013040103232EA4FC0327C4FD9307F000D8
:1007A00063E4E702B70700811387071A8327C4FDB4
:1007B00093972700B307F70083A707001385070067
:1007C000EFF09FF86F004007930700022326F4FE26
:1007D000A30504FE8327C4FE9387C7FF0327C4FD38
:1007E000B357F70093F7F7002322F4FE832744FE64
:1007F0006386070093071000A305F4FE8347B4FE49
:1008000063820702B70700811387071A832744FE14
:1008100093972700B307F70083A707001385070006
:10082000EFF09FF28327C4FE9387C7FF2326F4FED1
:100830008327C4FEE340F0FA8320C102032481022F
:100840001301010367800000130101FE232E110034
:10085000232C8100130401022326A4FE2324B4FECA
:100860000325C4FEEFF05FEE032584FEEFF09FF159
:10087000B707008113850708EFF01FED1300000094
:100880008320C1010324810113010102678000005C
:10089000130101FD23261102232481021304010305
:1008A000232EA4FC232CB4FC232AC4FC2328D4FC30
:1008B000B7370081938707940327C4FD23A0E7007F
:1008C000B737008193870794032784FD23A2E700AD
:1008D000B737008193870794032744FD23A4E700DB
:1008E000B737008193870794032704FD23A6E70009
:1008F000EFF05F8D2324A4FE032704FD832784FEED
:10090000B357F7022326F4FE032704FD832784FE52
:10091000B377F702638807008327C4FE9387170025
:100920002326F4FE8325C4FEB70700811385470CF8
:10093000EFF09FF1B7370081938707940327C4FE38
:1009400023A8E700032704FD832784FE6362F702E0
:10095000B737008193860794B71700801386879C6A
:10096000832584FE032504FDEFF0DFAB6F0000025A
:10097000B737008193860794B71700801386879C4A
:10098000832504FD032504FDEFF0DFA9EFF01F83AD
:100990002322A4FE032704FD832744FE63F8E70017
:1009A000032544FEEFF0DFB66F00C000032504FD11
:1009B000EFF01FB6130000008320C1020324810260
:1009C0001301010367800000130101FA232E1104B3
:1009D000232C8104130401062326A4FA2324B4FA49
:1009E000EFF0DFBF232CA4FC832784FD83A707003F
:1009F000232AF4FC832784FD83A747002328F4FCE3
:100A0000832784FD83A787002326F4FC832784FDA6
:100A100083A707012326F4FE0327C4FE8327C4FA15
:100A2000B307F7022324F4FE8327C4FE639A07006A
:100A3000930710002326F4FE8327C4FA2324F4FE30
:100A4000832784FD83A7C7002324F4FC232204FE0C
:100A50006F00800D232004FE232E04FC6F0080070E
:100A6000032784FA832784FCB307F7020327C4FD16
:100A7000B307F7002322F4FC032784FC8327C4FD7B
:100A8000B307F702032784FEB307F7002320F4FC23
:100A9000832744FC93972700032744FDB307F700FF
:100AA00003A70700832704FC93972700832604FDF0
:100AB000B387F60083A70700B307F702032704FEF6
:100AC000B307F7002320F4FE8327C4FD93871700A4
:100AD000232EF4FC0327C4FD832784FCE362F7F88C
:100AE000032784FA832784FC3307F702832784FED5
:100AF000B307F700232EF4FA8327C4FB939727004C
:100B00000327C4FCB307F700032704FE23A0E70074
:100B1000832784FE938717002324F4FE832744FE53
:100B2000938717002322F4FE832744FE0327C4FE85
:100B3000E3E2E7F2130000008320C10503248105EE
:100B40001301010667800000130101FC232E11022E
:100B5000232C810213040104232EA4FC232CB4FCB7
:100B6000232AC4FC2328D4FC2326E4FCB7370081C5
:100B7000938747950327C4FD23A0E700B73700817B
:100B800093874795032784FD23A2E700B7370081A9
:100B900093874795032744FD23A4E700B7370081D7
:100BA000938747950327C4FC23A6E700B737008146
:100BB00093874795032704FD23A8E700EFF08FE014
:100BC0002324A4FE0327C4FC832784FEB357F70223
:100BD0002326F4FE0327C4FC832784FEB377F702A1
:100BE000638807008327C4FE938717002326F4FE3B
:100BF000B7370081938747950327C4FE23AAE700F0
:100C00000327C4FC832784FE6362F702B7370081A1
:100C100093864795B7170080138647C8832584FEBF
:100C2000032504FDEFF01F806F000002B73700813D
:100C300093864795B7170080138647C88325C4FC61
:100C4000032504FDEFF00FFEEFF04FD72322A4FEA3
:100C5000032704FD832744FE63F8E700032544FED1
:100C6000EFF01F8B6F00C000032504FDEFF05F8ADB
:100C7000130000008320C103032481031301010436
:100C800067800000130101FB232611042324810443
:100C900013040105232EA4FA232CB4FAEFF01F94B9
:100CA0002320A4FE832704FE83A70700232EF4FC41
:100CB000832704FE83A74700232CF4FC832704FE2C
:100CC00083A78700232AF4FC832704FE83A7470118
:100CD0002326F4FE0327C4FE8327C4FBB307F702D1
:100CE0002324F4FE8327C4FE639A070093071000B1
:100CF0002326F4FE8327C4FB2324F4FE832704FE6B
:100D000083A7C7002328F4FC232204FE6F00000CF5
:100D1000032784FB832704FD3307F702832784FE20
:100D2000B307F7002326F4FC032784FE832704FD82
:100D3000B337F70093F7F70F2324F4FC832784FCE1
:100D400093B71700A303F4FC834774FC138F0700C9
:100D5000B7170080938F87DB6B200F007B70FF013C
:100D60008327C4FC939727000327C4FDB307F7002C
:100D700083A607008327C4FC93972700032784FDDD
:100D8000B307F70003A707008327C4FC9397270046
:100D9000032644FDB307F6003387E60023A0E700EF
:100DA000832784FE938717002324F4FEB71700805F
:100DB000138EC7DB67000E00130000006B300000CD
:100DC000832744FE938717002322F4FE832744FEE3
:100DD0000327C4FEE3EEE7F2130000008320C10402
:100DE000032481041301010567800000130101FC45
:100DF000232E1102232C810213040104232EA4FCB0
:100E0000232CB4FC232AC4FC2328D4FC2326E4FC92
:100E1000B7370081938747950327C4FD23A0E700D8
:100E2000B737008193874795032784FD23A2E70006
:100E3000B737008193874795032744FD23A4E70034
:100E4000B7370081938747950327C4FC23A6E700A3
:100E5000B737008193874795032704FD23A8E70050
:100E6000EFF04FB62324A4FE0327C4FC832784FE9F
:100E7000B357F7022326F4FE0327C4FC832784FE1E
:100E8000B377F702638807008327C4FE93871700B0
:100E90002326F4FEB7370081938747950327C4FEC6
:100EA00023AAE7000327C4FC832784FE6362F702BA
:100EB000B737008193864795B7170080138687F26E
:100EC000832584FE032504FDEFF0CFD56F000002DB
:100ED000B737008193864795B7170080138687F24E
:100EE0008325C4FC032504FDEFF0CFD3EFF00FAD55
:100EF0002322A4FE032704FD832744FE63F8E700B2
:100F0000032544FEEFF0CFE06F00C000032504FD91
:100F1000EFF00FE0130000008320C10303248103DE
:100F20001301010467800000130101FB2326110453
:100F30002324810413040105232EA4FA232CB4FADC
:100F4000EFF0CFE92320A4FE832704FE83A7070048
:100F5000232EF4FC832704FE83A74700232CF4FCF4
:100F6000832704FE83A78700232AF4FC832704FE3B
:100F700083A747012326F4FE0327C4FE8327C4FB6F
:100F8000B307F7022324F4FE8327C4FE639A070005
:100F9000930710002326F4FE8327C4FB2324F4FECA
:100FA000832704FE83A7C7002328F4FC232204FE22
:100FB0006F00000C032784FB832704FD3307F7022F
:100FC000832784FEB307F7002326F4FC032784FE5F
:100FD000832704FDB337F70093F7F70F2324F4FCBE
:100FE000832784FC93B71700A303F4FC834774FCA6
:100FF000138F0700B7170080938FC7056B200F0072
:101000007B70FF018327C4FC939727000327C4FD4F
:10101000B307F70083A607008327C4FC9397270034
:10102000032784FDB307F70003A707008327C4FC49
:1010300093972700032644FDB307F6003387E64065
:1010400023A0E700832784FE938717002324F4FE60
:10105000B7170080138E070667000E00130000000C
:101060006B300000832744FE938717002322F4FE91
:10107000832744FE0327C4FEE3EEE7F213000000DB
:101080008320C1040324810413010105678000004B
:10109000130101FC232E1102232C810213040104ED
:1010A000232EA4FC232CB4FC232AC4FC2328D4FC28
:1010B0002326E4FCB73700819387C7960327C4FD36
:1010C00023A0E700B73700819387C796032784FDE5
:1010D00023A2E700B73700819387C796032744FD13
:1010E00023A4E700B73700819387C7960327C4FC82
:1010F00023A6E700B73700819387C796032704FD2F
:1011000023A8E700EFF00F8C2324A4FE0327C4FCE0
:10111000832784FEB357F7022326F4FE0327C4FC7B
:10112000832784FEB377F702638807008327C4FE12
:10113000938717002326F4FEB73700819387C7965D
:101140000327C4FE23AAE7000327C4FC832784FEE9
:101150006362F702B73700819386C796B71700809E
:101160001386C71C832584FE032504FDEFF08FAB97
:101170006F000002B73700819386C796B7170080CB
:101180001386C71C8325C4FC032504FDEFF08FA93B
:10119000EFF0CF822322A4FE032704FD832744FE21
:1011A00063F8E700032544FEEFF08FB66F00C00040
:1011B000032504FDEFF0CFB5130000008320C10329
:1011C000032481031301010467800000130101FB64
:1011D000232611042324810413040105232EA4FAD9
:1011E000232CB4FAEFF08FBF2320A4FE832704FE44
:1011F00083A70700232EF4FC832704FE83A7470060
:1012000083A70700232CF4FC832704FE83A7870011
:10121000232AF4FC832704FE83A747012326F4FE38
:101220000327C4FE8327C4FBB307F7022324F4FE7D
:101230008327C4FE639A0700930710002326F4FE59
:101240008327C4FB2324F4FE832704FE83A7C7005F
:101250002328F4FC232204FE6F00000B032784FBE9
:10126000832704FD3307F702832784FEB307F700C3
:101270002326F4FC032784FE832704FDB337F700FD
:1012800093F7F70F2324F4FC832784FC93B717000C
:10129000A303F4FC834774FC138F0700B717008087
:1012A000938F472F6B200F007B70FF018327C4FCB7
:1012B000939727000327C4FDB307F70083A6070011
:1012C0008327C4FC93972700032744FDB307F70047
:1012D000032784FD3387E60023A0E700832784FEED
:1012E000938717002324F4FEB7170080138E872FEF
:1012F00067000E00130000006B300000832744FEDF
:10130000938717002322F4FE832744FE0327C4FE9D
:10131000E3E6E7F4130000008320C1040324810402
:101320001301010567800000130101FC232E110247
:10133000232C810213040104232EA4FC232CB4FCCF
:10134000232AC4FC2328D4FC2326E4FCB7370081DD
:101350009387C7960327C4FD23A0E700B737008112
:101360009387C796032784FD23A2E700B737008140
:101370009387C796032744FD23A4E700B73700816E
:101380009387C7960327C4FC23A6E700B7370081DD
:101390009387C796032704FD23A8E700EFE09FE2A9
:1013A0002324A4FE0327C4FC832784FEB357F7023B
:1013B0002326F4FE0327C4FC832784FEB377F702B9
:1013C000638807008327C4FE938717002326F4FE53
:1013D000B73700819387C7960327C4FE23AAE70087
:1013E0000327C4FC832784FE6362F702B7370081BA
:1013F0009386C796B717008013864746832584FED9
:10140000032504FDEFF00F826F000002B737008163
:101410009386C796B7170080138647468325C4FC7A
:10142000032504FDEFF00F80EFE05FD92322A4FE37
:10143000032704FD832744FE63F8E700032544FEE9
:10144000EFF00F8D6F00C000032504FDEFF04F8C0F
:10145000130000008320C10303248103130101044E
:1014600067800000130101FB23261104232481045B
:1014700013040105232EA4FA232CB4FAEFF00F96DF
:101480002320A4FE832704FE83A70700232EF4FC59
:10149000832704FE83A7470083A70700232CF4FCBF
:1014A000832704FE83A78700232AF4FC832704FEF6
:1014B00083A747012326F4FE0327C4FE8327C4FB2A
:1014C000B307F7022324F4FE8327C4FE639A0700C0
:1014D000930710002326F4FE8327C4FB2324F4FE85
:1014E000832704FE83A7C7002328F4FC232204FEDD
:1014F0006F00000B032784FB832704FD3307F702EB
:10150000832784FEB307F7002326F4FC032784FE19
:10151000832704FDB337F70093F7F70F2324F4FC78
:10152000832784FC93B71700A303F4FC834774FC60
:10153000138F0700B7170080938FC7586B200F00D9
:101540007B70FF018327C4FC939727000327C4FD0A
:10155000B307F70083A607008327C4FC93972700EF
:10156000032744FDB307F700032784FD3387E60212
:1015700023A0E700832784FE938717002324F4FE2B
:10158000B7170080138E075967000E001300000084
:101590006B300000832744FE938717002322F4FE5C
:1015A000832744FE0327C4FEE3E6E7F413000000AC
:1015B0008320C10403248104130101056780000016
:1015C000130101FE232E810013040102232604FED1
:1015D0006F008004B7370081138747988327C4FEC4
:1015E00093972700B307F7001307300023A0E70005
:1015F000B7470081138747988327C4FE9397270036
:10160000B307F7001307200023A0E7008327C4FED9
:10161000938717002326F4FE0327C4FE9307F00FD9
:10162000E3DAE7FA130000000324C1011301010209
:1016300067800000130101FD23261102232481028B
:1016400013040103232EA4FCB7070081138507119F
:10165000EFF08F8F232604FE6F0080058327C4FEE2
:10166000638E07008327C4FE93F7F7006398070093
:10167000B707008113854713EFF00F8D8327C4FE52
:10168000939727000327C4FDB307F70083A707003C
:1016900013850700EFF00F8FB707008113858713BD
:1016A000EFF08F8A8327C4FE938717002326F4FE6A
:1016B0000327C4FE9307F00FE3D2E7FAB7070081D0
:1016C0001385C713EFF04F88130000008320C10279
:1016D000032481021301010367800000130101FF4D
:1016E000232611002324810013040101EFF05FED94
:1016F00093060001B757008113864798B7470081CA
:1017000093854798B737008113854798EFF04F9836
:1017100093070000138507008320C1000324810084
:081720001301010167800000C4
:02000004810079
:10000000300000003100000032000000330000002A
:10001000340000003500000036000000370000000A
:10002000380000003900000061000000620000009C
:10003000630000006400000065000000660000002E
:1000400030000000310000003200000033000000EA
:1000500034000000350000003600000037000000CA
:10006000380000003900000061000000620000005C
:1000700063000000640000006500000066000000EE
:100080000A000000300000003100000032000000D3
:10009000330000003400000035000000360000008E
:1000A0003700000038000000390000006100000047
:1000B00062000000630000006400000065000000B2
:1000C000660000004F66667365743A200000000009
:1000D000300000003100000032000000330000005A
:1000E000340000003500000036000000370000003A
:1000F00038000000390000006100000062000000CC
:10010000630000006400000065000000660000005D
:100110002D2D2D2D2D2D2D2D2D2D2D2D2D2D2D2D0F
:100120002D2D2D2D2D2D2D2D2D2D2D2D2D2D2D0A22
:10013000000000000A000000200000000A2D2D2D04
:100140002D2D2D2D2D2D2D2D2D2D2D2D2D2D2D2DDF
:0E0150002D2D2D2D2D2D2D2D2D2D2D2D0A007B
:100160000000008104000081080000810C00008173
:100170001000008114000081180000811C00008123
:100180002000008124000081280000812C000081D3
:100190003000008134000081380000813C00008183
:1001A0004000008144000081480000814C00008133
:1001B0005000008154000081580000815C000081E3
:1001C0006000008164000081680000816C00008193
:1001D0007000008174000081780000817C00008143
:1001E00084000081880000818C00008190000081E3
:1001F00094000081980000819C000081A000008193
:10020000A4000081A8000081AC000081B000008142
:10021000B4000081B8000081BC000081C0000081F2
:10022000D0000081D4000081D8000081DC00008172
:10023000E0000081E4000081E8000081EC00008122
:10024000F0000081F4000081F8000081FC000081D2
:100250000001008104010081080100810C0100817E
:040000058000000077
:00000001FF
