:0200000480007A
:10000000732510FC97050000938585116B10B500D2
:10001000EF00C010130510006B000500732510FCE5
:10002000970500009385851A6B10B500EF00C01985
:10003000130510006B00050017150000130585401F
:1000400017160000130606483306A6409305000065
:10005000EF0050321705000013054526EF00501B36
:0C006000EF00401CEF0080006F00D01B80
:10006C00130101EB930740002326F100232CF10030
:10007C002322F10293071000232EF10223261114E0
:10008C0023280102232A0102232C01021307010455
:10009C0093070000930600042320F70093871700B2
:1000AC0013074700E39AD7FE1305C100130601049A
:1000BC009705000093854503EF00406C8320C11425
:1000CC001305000013010115678000009307000061
:1000DC0063880700370500801305852B6F0090128D
:1000EC0067800000F32720CC93972700B385F50099
:1000FC0003A50500B327A0006BA007006B30000020
:10010C006780000093010400130500006B000500DC
:10011C001305F0FF6B000500971100009381416EF1
:10012C00370100FF732510CC9315A5003301B140A6
:10013C00930500003305B502171200001302B23B01
:10014C003302A200137202FCF32630CC638C06003F
:10015C00130500006B00050013050000930500005B
:10016C006B10B500678000001305F0FF678000007E
:10017C001305F0FF67800000130500006780000086
:10018C0013050000678000001305F0FF6780000076
:10019C001305F0FF678000007300100013050000CA
:1001AC006780000013050600678000001305F0FF50
:1001BC0067800000732540F167800000130101FF88
:1001CC0023261100232481009307F0FF6B80070086
:1001DC001306000013050200971500009385C5E176
:1001EC0013040200EF009006130500001306000034
:1001FC00930500003305A400EF001017F32730CC53
:10020C0093B717006B8007008320C1000324810083
:10021C001301010167800000130101FF23248100F9
:10022C002320210117140000130404DD171900000A
:10023C00130989DC330989402326110023229100FC
:10024C0013592940630E090093040000832704000E
:10025C009384140013044400E7800700E31899FE0C
:10026C0017140000130444D917190000130909D9F5
:10027C003309894013592940630E09009304000087
:10028C00832704009384140013044400E7800700C0
:10029C00E31899FE8320C1000324810083244100CC
:1002AC00032901001301010167800000130101FF04
:1002BC002324810097170000938747D4171400005C
:1002CC001304C4D3B3878740232291002326110043
:1002DC0093D42740638004029387C7FF338487003D
:1002EC00832704009384F4FF1304C4FFE780070002
:1002FC00E39804FE8320C100032481008324410081
:10030C001301010167800000130101FF2326110076
:10031C00232481002322910023202101F32750CC98
:10032C00732730CCF32600CCF32500FC1396270062
:10033C009717000093874710B387C70083A4070063
:10034C0003A4040103A6C400332987009307040007
:10035C003309C9003304E6026354F700930707001E
:10036C003304F40003A784003304B402B307D902A6
:10037C003304E4003304F40033098900635E240180
:10038C0083A7040083A54400130504001304140080
:10039C00E7800700E31689FE03A7440193070000DA
:1003AC006BC0E7008320C10003248100832441003B
:1003BC00032901001301010167800000F32750CCD1
:1003CC00732520CC13972700971700009387C70637
:1003DC00B387E70083A7070003A7870003A30700E1
:1003EC0083A547003305E50067000300130101FFF7
:1003FC00232611009307F0FF6B800700EFF0DFF06E
:10040C00F32730CC93B717006B8007008320C10013
:10041C001301010167800000130101FE232E11005E
:10042C00232C8100232A910023282101232631012A
:10043C0023244101F32750CC732730CCF32600CC76
:10044C00732500FC13962700971700009387C7FEAF
:10045C00B387C70003A407008324440103260401C7
:10046C00332A970093870400330ACA00B304E602C8
:10047C006354F70093070700B384F400832504004A
:10048C000327C40003A9050083A94500B384A40273
:10049C00B307DA02B384E400B384F400330A9A009D
:1004AC00B309390363C044076F0000080347E40134
:1004BC008346D40133D7E440B3073703B387F44002
:1004CC00638006068346F401B3D6D740B38826036F
:1004DC0003AE450103A3050103A6C5000328440090
:1004EC0003258400938414003307C701B386660088
:1004FC00B38717413386C700E700080063069A02EA
:10050C00832504008347C401E39207FA33C73403FD
:10051C008346D401B3073703B387F440E39406FA58
:10052C00B3C627036FF09FFA0327840193070000DB
:10053C006BC0E7008320C1010324810183244101A6
:10054C00032901018329C100032A8100130101023F
:10055C0067800000732750CCF32720CC931627001C
:10056C0017170000130747ED3307D70003250700C3
:10057C00832505008326C5000347C50183A8050014
:10058C0003A64500B387D7003386C8026308070467
:10059C000347E5018346D50133D7E7403306C7024D
:1005AC00B387C740638606048346F50133D8D7402A
:1005BC0083A6050103AE450103A6C500B306D8000A
:1005CC003308180303234500032585003307C701AF
:1005DC00B38707413386C7006700030033C7C702E0
:1005EC008346D5013306C702B387C740E39E06FA9C
:1005FC0033C817036FF0DFFB130101FF2326110033
:10060C009307F0FF6B800700EFF01FE1F32730CC6E
:10061C0093B717006B8007008320C1001301010101
:10062C0067800000130101FD23261102232481029F
:10063C002322910223202103F32620FCF32810FC13
:10064C00F32400FCF32750CC1307F0016348F708A0
:10065C0033881403130710006354A80033470503B1
:10066C0063CAE60863DCE7069386F6FF3343E502CC
:10067C00130803006396F6003365E5023308650042
:10068C003349980233649802634C19071305100020
:10069C00B34619036386060013850600B366190377
:1006AC0017170000130747D92324B1002326C100D4
:1006BC00232AA100232CD100232E01003303F302A3
:1006CC0093972700B307F7001307810023A0E700D7
:1006DC0023286100634C2003631604068320C102A7
:1006EC000324810283244102032901021301010323
:1006FC006780000013870600E3C8E7F66FF01FFE63
:10070C0093060000130510006FF09FF99307090082
:10071C0063D4280193870800232EF10017070000EB
:10072C00130707CD6B90E7009307F0FF6B80070072
:10073C00EFF09FBDF32730CC93B717006B80070009
:10074C00E30E04F8B304990213091000331889005E
:10075C001308F8FF232891006B000800EFF01FC668
:10076C006B0009008320C10203248102832441020F
:10077C00032901021301010367800000130101FD2D
:10078C0023261102232481022322910223202103F8
:10079C00F32820FC732310FCF32400FCF32750CC2B
:1007AC001307F0016346F70E032E05008326450060
:1007BC0003288500B30E930213071000B306DE0264
:1007CC003388060363D40E013347D80363CEE80C99
:1007DC0063D0E70C9388F8FF334FE80213040F0043
:1007EC006396F8003367E8023304E7013349940257
:1007FC00336494026340690C93021000B34F690296
:10080C0063860F0093820F00B36F6902D3F706D093
:10081C009308FEFF938EF6FF538807E0D3770ED034
:10082C00B3F6DE0033FEC801538707E01358784156
:10083C0097180000938848C01357774193B6160059
:10084C00133E1E00130818F8130717F82320A100F5
:10085C002322B1002324C10023285100232AF101B3
:10086C00232C0100230ED100A30EC101230F010183
:10087C00A30FE100330FFF0293972700B387F80013
:10088C0023A027002326E101634C200363160406F2
:10089C008320C10203248102832441020329010223
:1008AC00130101036780000013870800E3C4E7F21B
:1008BC006FF01FFE930F0000930210006FF01FF5F6
:1008CC00930709006354230193070300232CF100C1
:1008DC0017070000130787D26B90E7009307F0FF10
:1008EC006B800700EFF05FB3F32730CC93B71700A2
:1008FC006B800700E30E04F8B3049902130910008F
:10090C00331489001304F4FF232691006B000400B8
:10091C00EFF05FC46B0009008320C1020324810245
:10092C0083244102032901021301010367800000A3
:10093C00130181FE232A11002328410123263101B2
:10094C00232421012322910023208100130A050076
:10095C0093890500732900FCF32400CC13040000D8
:10096C00B302944013B312006B2003006396020091
:10097C0013850900E7000A006B3000001304140013
:10098C00E34024FF83204101032A01018329C10094
:10099C0003298100832441000324010013018101F8
:1009AC00678000001305F0FF678000001305F0FF5F
:1009BC00678000001305F0FF678000001305F0FF4F
:1009CC00678000001305F0FF678000001305F0FF3F
:1009DC006780000013050000678000001305F0FF1E
:1009EC00678000001305F0FF678000001305F0FF1F
:1009FC00678000001305F0FF678000001305F0FF0F
:100A0C0067800000930505009306000013060000A4
:100A1C00130500006F000023130101FF9305000074
:100A2C00232481002326110013040500EF00402B22
:100A3C00B717008003A587438327C503638407008A
:100A4C00E780070013050400EFF0CFEBB3C7A50058
:100A5C0093F73700B308C50063920706930730007D
:100A6C0063FEC704937735001307050063980706E8
:100A7C0013F6C8FF930706FE636CF708637CC70286
:100A8C00938605009307070003A806009387470089
:100A9C009386460023AE07FFE3E8C7FE9307F6FFF5
:100AAC00B387E74093F7C7FF938747003307F700F7
:100ABC00B385F50063681701678000001307050014
:100ACC00E37C15FF83C705001307170093851500FA
:100ADC00A30FF7FEE36817FF6780000083C60500CD
:100AEC001307170093773700A30FD7FE93851500D4
:100AFC00E38007F883C605001307170093773700C8
:100B0C00A30FD7FE93851500E39A07FC6FF05FF6F1
:100B1C0083A6450083A2050083AF850003AFC50003
:100B2C0083AE050103AE450103A3850103A8C501EE
:100B3C002322D70083A60502232057002324F70184
:100B4C002326E7012328D701232AC701232C67007A
:100B5C00232E07012320D702130747029385450252
:100B6C00E368F7FA6FF09FF11303F0001307050029
:100B7C00637EC3029377F7006390070A63920508BC
:100B8C00937606FF1376F600B386E6002320B700B3
:100B9C002322B7002324B7002326B700130707012D
:100BAC00E366D7FE6314060067800000B306C340FB
:100BBC009396260097020000B38656006780C60005
:100BCC002307B700A306B7002306B700A305B70099
:100BDC002305B700A304B7002304B700A303B70091
:100BEC002303B700A302B7002302B700A301B70089
:100BFC002301B700A300B7002300B70067800000F3
:100C0C0093F5F50F93968500B3E5D5009396050102
:100C1C00B3E5D5006FF0DFF693962700970200003E
:100C2C00B386560093820000E78006FA9380020098
:100C3C00938707FF3307F7403306F600E378C3F6D4
:100C4C006FF0DFF3B717008003A787438327871460
:100C5C00638C070403A747001308F001634EE806F2
:100C6C001318270063060502338307012324C308E6
:100C7C0083A88718130610003316E600B3E8C800E3
:100C8C0023A417192324D310930620006304D50240
:100C9C001307170023A2E700B387070123A4B700AB
:100CAC0013050000678000009307C7142324F71472
:100CBC006FF05FFA83A6C7181307170023A2E7008B
:100CCC0033E6C60023A6C718B387070123A4B700D1
:100CDC0013050000678000001305F0FF678000001B
:100CEC00130101FDB7170080232C410103AA874390
:100CFC00232021032326110203298A142324810291
:100D0C0023229102232E3101232A51012328610130
:100D1C00232671012324810163000904130B0500B0
:100D2C00938B0500930A10009309F0FF832449006C
:100D3C001384F4FF6342040293942400B3049900D7
:100D4C0063840B0483A74410638077051304F4FFBA
:100D5C009384C4FFE31634FF8320C1020324810271
:100D6C0083244102032901028329C101032A810141
:100D7C00832A4101032B0101832BC100032C810029
:100D8C0013010103678000008327490083A64400F8
:100D9C009387F7FF638E870423A20400E38806FA87
:100DAC008327891833978A00032C4900B377F700FF
:100DBC0063920702E78006000327490083278A1401
:100DCC0063148701E304F9F8E38807F81389070033
:100DDC006FF0DFF58327C91883A544083377F70034
:100DEC00631C070013050B00E78006006FF0DFFCA7
:100DFC00232289006FF09FFA13850500E780060017
:040E0C006FF09FFBE9
:100E10001000000000000000037A5200017C010174
:100E20001B0D0200100000001800000084FBFFFFF3
:100E30000800000000000000100000002C0000006E
:100E400078FBFFFF08000000000000001000000019
:100E5000400000006CFBFFFF0800000000000000E5
:100E6000100000005400000060FBFFFF08000000BD
:100E700000000000100000006800000054FBFFFFAD
:100E80000800000000000000100000007C000000CE
:100E900048FBFFFF080000000000000010000000F9
:100EA000900000003CFBFFFF080000000000000075
:100EB00010000000A400000030FBFFFF080000004D
:100EC0000000000010000000B800000024FBFFFF3D
:100ED000080000000000000010000000CC0000002E
:100EE00018FBFFFF080000000000000010000000D9
:100EF000E00000000CFBFFFF080000000000000005
:100F000010000000F400000000FBFFFF08000000DC
:040F100000000000DD
:04100000D800008094
:10100800000000000000000000000000FC1200804A
:1010180064130080CC130080000000000000000072
:1010280000000000000000000000000000000000B8
:1010380000000000000000000000000000000000A8
:101048000000000000000000000000000000000098
:101058000000000000000000000000000000000088
:101068000000000000000000000000000000000078
:101078000000000000000000000000000000000068
:101088000000000000000000000000000000000058
:101098000000000000000000000000000000000048
:1010A8000000000000000000000000000000000038
:1010B80001000000000000000E33CDAB34126DE6D5
:1010C800ECDE05000B00000000000000000000003E
:1010D8000000000000000000000000000000000008
:1010E80000000000000000000000000000000000F8
:1010F80000000000000000000000000000000000E8
:1011080000000000000000000000000000000000D7
:040000058000000077
:00000001FF
